:020000040800F2
:100000000028002075030008C5030008C503000888
:10001000C5030008C5030008C50300080000000070
:10002000000000000000000000000000C503000800
:10003000C503000800000000C5030008C503000850
:10004000C5030008C5030008C5030008C503000870
:10005000C5030008C5030008C5030008C503000860
:10006000C5030008C5030008C5030008C503000850
:10007000C5030008C5030008C5030008C503000840
:10008000C5030008C5030008C5030008C503000830
:10009000C5030008C5030008C5030008C503000820
:1000A000C5030008C5030008C5030008C503000810
:1000B000C5030008C5030008C5030008C503000800
:1000C000C5030008C5030008C5030008C5030008F0
:1000D000C5030008C5030008C5030008C5030008E0
:1000E000C5030008C503000800000000C5030008A0
:1000F000C5030008C5030008C5030008C5030008C0
:10010000C5030008C5030008C5030008C5030008AF
:10011000C5030008C5030008C5030008C50300089F
:10012000C5030008C5030008C5030008C50300088F
:1001300010B5054C237833B9044B13B10448AFF321
:1001400000800123237010BD20000020000000006B
:10015000580C000808B5034B1BB103490348AFF323
:10016000008008BD0000000024000020580C00089A
:1001700080B582B000AF4FF40073BB800423BB7125
:100180000123FB713B1D1946274800F07FF94FF40E
:100190008063BB800423BB710123FB713B1D1946A7
:1001A000214800F073F94FF40063BB800423BB7156
:1001B0000123FB713B1D19461B4800F067F94FF402
:1001C0008053BB800423BB710123FB713B1D194687
:1001D000154800F05BF94FF40053BB800423BB715A
:1001E0000123FB713B1D19460F4800F04FF94FF4F6
:1001F0008043BB800423BB710123FB713B1D194667
:10020000094800F043F94FF40043BB800423BB715D
:100210000123FB713B1D1946034800F037F900BF6D
:100220000837BD4680BD00BF000C014080B400AF60
:10023000074B9B69064A43F004039361044B9B6997
:10024000034A43F00803936100BFBD4680BC70477A
:100250000010024080B485B000AF78600023FB60DE
:100260000BE00023BB6002E0BB680133BB60BB68EE
:10027000FE2BF9D9FB680133FB60FA687B689A4270
:10028000EFD300BF1437BD4680BC704780B588B03F
:1002900000AFFFF7CBFFFFF76BFF00F009FB304823
:1002A00000F094FC4FF4FA70FFF7D4FF00F0A9FCC3
:1002B0002C4A07F1100307CA03C31A800233120C39
:1002C0001A70294A3B1D07CA03C31A800233120C55
:1002D0001A700023FB771BE0FB7F07F12002134419
:1002E00013F8103C9BB25B029BB219461F4800F00A
:1002F0007AF9FB7F07F12002134413F81C3C1846DF
:1003000000F0D2FBC820FFF7A5FFFB7F0133FB778E
:10031000FB7F0A2BE0D900F074FC00F073F914485D
:1003200000F054FC4FF4FA70FFF794FF00F069FC02
:1003300000F0DEF90346BB77BB7F3F2B02D0412B99
:1003400008D002E000F05DFC05E0BB7F184600F03D
:10035000ABFB00E000BF3220FFF77CFFE8E700BF07
:10036000700C0008900C00089C0C0008000C014068
:10037000800C00080D488546AFF300800C480D49FD
:100380000D4A002302E0D458C4500433C4188C42F0
:10039000F9D30A4A0A4C002301E013600432A24256
:1003A000FBD300F035FCFFF771FFFEE700280020CB
:1003B0000000002020000020B00C000820000020D9
:1003C00040000020FEE780B483B000AF0346FB800E
:1003D000FB88802B42D0802B11DC082B36D0082BD9
:1003E00006DC022B2ED0042B2ED0012B28D047E088
:1003F000202B2FD0402B2FD0102B29D040E0B3F54D
:10040000006F33D0B3F5006F09DCB3F5007F29D05E
:10041000B3F5806F28D0B3F5807F21D030E0B3F5FD
:10042000005F27D0B3F5005F03DCB3F5805F1FD01A
:1004300026E0B3F5804F1FD0B3F5004F1ED01FE06C
:1004400000231EE004231CE008231AE00C2318E01C
:10045000102316E0142314E0182312E01C2310E0EC
:1004600000230EE004230CE008230AE00C2308E03C
:10047000102306E0142304E0182302E01C2300E00C
:10048000002318460C37BD4680BC704790B585B038
:1004900000AF786039600023BB600023FB733B68CA
:1004A0001B88FF2B01D87B6801E07B680433BB60AD
:1004B0003B681B881846FFF786FF03461A460F2342
:1004C0009340DA43BB681B681A40BB681A603B68FC
:1004D0009B78072B0BD03B689B78062B07D03B689B
:1004E0009B78052B03D03B689B78042B0ED13B688F
:1004F0009B78043B9B005AB23B68DB785BB21343AA
:100500005BB2DBB203F00F03FB732CE03B689B781C
:10051000002B03D03B689B78012B07D13B689B786D
:100520009B00DBB203F00F03FB731CE03B689B787E
:10053000082B02D10423FB7315E00823FB733B68EF
:100540009B78022B07D17B68DB683A6812881A43D4
:100550007B68DA6007E07B68DB683A681288D24320
:100560001A407B68DA60FC7B3B681B881846FFF703
:100570002AFF034604FA03F2BB681B681A43BB68F0
:100580001A6000BF1437BD4690BD80B485B000AF7F
:1005900078600B467B807B689A687B881340002BD1
:1005A00002D00123FB7301E00023FB73FB7B1846A1
:1005B0001437BD4680BC704780B483B000AF78600C
:1005C0000B467B8013467B707B78002B03D07A88A8
:1005D0007B681A6102E07A887B685A6100BF0C3739
:1005E000BD4680BC704780B483B000AF78600B46D6
:1005F0007B807A887B68DA6000BF0C37BD4680BCA0
:100600007047000080B500AF374B01221A80364B8F
:1006100004229A70344B0122DA7033493348FFF7D1
:1006200035FF314B02221A802F4B04229A702E4B39
:100630000122DA702C492D48FFF728FF2A4B0822A7
:100640001A80294B04229A70274B0122DA7026491E
:100650002648FFF71BFF244B10221A80224B04224E
:100660009A70214B0122DA701F492048FFF70EFFD4
:100670001D4B20221A801C4B04229A701A4B012217
:10068000DA7019491948FFF701FF174B40221A8009
:10069000154B04229A70144B0122DA701249134848
:1006A000FFF7F4FE104B80221A800F4B04229A7041
:1006B0000D4B0122DA700C490C48FFF7E7FE0A4B9C
:1006C0004FF480721A80084B04229A70064B012264
:1006D000DA7005490548FFF7D9FEFF210348FFF707
:1006E00082FF00BF80BD00BF3C000020000C014025
:1006F00080B582B000AF00237B60ADE05B4B1B6830
:100700009BB2012219465A48FFF756FF574B5B68C8
:100710009BB2012219465648FFF74EFF534B9B6888
:100720009BB2012219465248FFF746FF4F4BDB6848
:100730009BB2012219464E48FFF73EFF4B4A7B68A9
:1007400052F823309BB2002219464948FFF734FF84
:1007500000233B607AE0474A3B6852F823309BB263
:1007600019464348FFF711FF0346002B6BD15EE0AB
:100770007B68032B5BD801A252F823F08D07000899
:10078000B5070008DD070008050800083B68002BD6
:1007900001D1372365E03B68012B01D1342360E0B0
:1007A0003B68022B01D131235BE03B68032B3ED138
:1007B0003F2356E03B68002B01D1382351E03B68D2
:1007C000012B01D135234CE03B68022B01D13223B0
:1007D00047E03B68032B2AD1302342E03B68002BE3
:1007E00001D139233DE03B68012B01D1362338E0AC
:1007F0003B68022B01D1332333E03B68032B16D136
:100800003D232EE03B68002B01D12F2329E03B68DC
:10081000012B01D12A2324E03B68022B01D12D2397
:100820001FE03B68032B01D12B231AE000BF114AC4
:100830003B6852F823309BB219460D48FFF7A5FEDE
:100840000346002B94D03B6801333B603B68032B8D
:1008500081DD7B6801337B607B68032B7FF74EAFC4
:10086000412318460837BD4680BD00BF1000002058
:10087000000C01400000002080B485B000AF78601B
:100880000023FB600BE00023BB6002E0BB68013388
:10089000BB60BB68FE2BF9D9FB680133FB60FA68CB
:1008A0007B689A42EFD300BF1437BD4680BC7047C7
:1008B00080B500AF1420FFF7DFFF304B4FF480729C
:1008C0001A802E4B04229A702C4B0122DA702B498D
:1008D0002B48FFF7DBFD294B4FF400721A80274BA2
:1008E00004229A70254B0122DA7024492448FFF72C
:1008F000CDFD0F20FFF7C0FF204B10221A801F4BA9
:1009000004229A701D4B0122DA701C491C48FFF723
:10091000BDFD1A4B20221A80184B04229A70174BE7
:100920000122DA7015491648FFF7B0FD134B40223B
:100930001A80124B04229A70104B0122DA700F4970
:100940000F48FFF7A3FD0D4B80221A800B4B0422AA
:100950009A700A4B0122DA7008490948FFF796FDA0
:10096000022000F00FF8282000F00CF80F2000F013
:1009700009F8012000F006F800BF80BD3C0000200F
:100980000008014080B582B000AF0346FB71002231
:100990004FF480714348FFF70FFE0120FFF76CFF13
:1009A00001224FF400713F48FFF706FE0120FFF7D8
:1009B00063FFFB791B09DBB203F00103DBB21A46CC
:1009C00010213848FFF7F8FDFB795B09DBB203F033
:1009D0000103DBB21A4620213248FFF7EDFDFB7917
:1009E0009B09DBB203F00103DBB21A4640212D481C
:1009F000FFF7E2FDFB79DB09DBB21A4680212948CB
:100A0000FFF7DAFD0120FFF737FF00224FF40071F6
:100A10002448FFF7D1FD0120FFF72EFF01224FF4FC
:100A200000712048FFF7C8FD0120FFF725FFFB7983
:100A300003F00103DBB21A4610211A48FFF7BCFD90
:100A4000FB795B08DBB203F00103DBB21A4620211D
:100A50001448FFF7B1FDFB799B08DBB203F00103FB
:100A6000DBB21A4640210F48FFF7A6FDFB79DB08F1
:100A7000DBB203F00103DBB21A4680210948FFF71D
:100A80009BFD0120FFF7F8FE00224FF4007105489E
:100A9000FFF792FD0120FFF7EFFE00BF0837BD46CC
:100AA00080BD00BF0008014080B582B000AF0346A2
:100AB000FB7101224FF480714348FFF77DFD012057
:100AC000FFF7DAFE01224FF400713F48FFF774FD93
:100AD0000120FFF7D1FEFB791B09DBB203F0010314
:100AE000DBB21A4610213848FFF766FDFB795B0937
:100AF000DBB203F00103DBB21A4620213248FFF7D4
:100B00005BFDFB799B09DBB203F00103DBB21A4604
:100B100040212D48FFF750FDFB79DB09DBB21A4677
:100B200080212948FFF748FD0120FFF7A5FE00229C
:100B30004FF400712448FFF73FFD0120FFF79CFEB2
:100B400001224FF400712048FFF736FD0120FFF726
:100B500093FEFB7903F00103DBB21A4610211A4819
:100B6000FFF72AFDFB795B08DBB203F00103DBB280
:100B70001A4620211448FFF71FFDFB799B08DBB2C2
:100B800003F00103DBB21A4640210F48FFF714FDC2
:100B9000FB79DB08DBB203F00103DBB21A468021EC
:100BA0000948FFF709FD0120FFF766FE00224FF418
:100BB00000710548FFF700FD0120FFF75DFE00BF53
:100BC0000837BD4680BD00BF0008014080B584B035
:100BD00000AF78600023FB7309E0FB7B7A68134465
:100BE0001B781846FFF760FFFB7B0133FB73FB7B31
:100BF0007A6813441B78002BEFD100BF1037BD4635
:100C000080BD80B500AF0120FFF7BCFE00BF80BDF6
:100C100070B500250C4E0D4CA41BA410A54209D1A3
:100C200000F01AF800250A4E0A4CA41BA410A54295
:100C300005D170BD56F8253098470135EEE756F8D6
:100C4000253098470135F2E7A80C0008A80C0008E9
:100C5000A80C0008AC0C0008F8B500BFF8BC08BC34
:100C60009E467047F8B500BFF8BC08BC9E4670476A
:100C700048656C6C6F204D6F68616D6564000000A5
:100C80006B657970616420697320726561647900B5
:100C9000017924304C120219001001003031323336
:080CA0003435363738393000D5
:040CA80055010008EA
:040CAC00310100080A
:100CB0000100000002000000080000001000000019
:100CC0002000000040000000800000000001000043
:040000050800037577
:00000001FF
