:020000040800F2
:1000000000280020A9020008F9020008F9020008EF
:10001000F9020008F9020008F902000800000000D7
:10002000000000000000000000000000F9020008CD
:10003000F902000800000000F9020008F9020008B7
:10004000F9020008F9020008F9020008F9020008A4
:10005000F9020008F9020008F9020008F902000894
:10006000F9020008F9020008F9020008F902000884
:10007000F9020008F9020008F9020008F902000874
:10008000F9020008F9020008F9020008F902000864
:10009000F9020008F9020008F9020008F902000854
:1000A000F9020008F9020008F9020008F902000844
:1000B000F9020008F9020008F9020008F902000834
:1000C000F9020008F9020008F9020008F902000824
:1000D000F9020008F9020008F9020008F902000814
:1000E000F9020008F902000800000000F902000807
:1000F000F9020008F9020008F9020008F9020008F4
:10010000F9020008F9020008F9020008F9020008E3
:10011000F9020008F9020008F9020008F9020008D3
:10012000F9020008F9020008F9020008F9020008C3
:1001300010B5054C237833B9044B13B10448AFF321
:1001400000800123237010BD00000020000000008B
:100150004403000808B5034B1BB103490348AFF340
:10016000008008BD000000000400002044030008D7
:1001700080B400AF194B00221A60194B00221A609C
:10018000164B1B68154A43F040031360144B1B6861
:10019000134A23F0C0031360114B1B68104A43F04D
:1001A000100313600F4B1B680E4A23F440131360B7
:1001B0000C4B1B680B4A43F4800313600A4B1B680B
:1001C000094A23F440031360074B1B68064A43F4B3
:1001D0008013136000BFBD4680BC7047000801401B
:1001E000000C014004080140040C014080B400AF41
:1001F000074B1B68064A43F004031360044B1B685B
:10020000034A43F00803136000BFBD4680BC70473B
:100210001810024080B485B000AF78600023FB6006
:100220000BE00023BB6002E0BB680133BB60BB682E
:10023000FE2BF9D9FB680133FB607B68FA689A42B0
:10024000EFD300BF1437BD4680BC704780B500AF08
:10025000FFF7CCFFFFF78CFF114B1B6803F0020385
:10026000002B0CD10F4B1B680E4A83F00203136066
:1002700000BF0B4B1B6803F00203002BF9D0084BA7
:100280001B685B0B03F00103012B05D1054B1B68B9
:10029000044A83F4005313600120FFF7BBFFDBE740
:1002A000080801400C0C01400D488546AFF3008062
:1002B0000C480D490D4A002302E0D458C4500433C1
:1002C000C4188C42F9D30A4A0A4C002301E0136097
:1002D0000432A242FBD300F011F8FFF7B7FFFEE7AC
:1002E0000028002000000020000000206403000817
:1002F000000000201C000020FEE7000070B5002573
:100300000C4E0D4CA41BA410A54209D100F01AF804
:1003100000250A4E0A4CA41BA410A54205D170BDAD
:1003200056F8253098470135EEE756F825309847BE
:100330000135F2E75C0300085C0300085C03000879
:1003400060030008F8B500BFF8BC08BC9E467047C3
:0C035000F8B500BFF8BC08BC9E46704722
:04035C00550100083F
:04036000310100085F
:04000005080002A944
:00000001FF
