:020000040800F2
:100000000028002099020008E9020008E90200081F
:10001000E9020008E9020008E90200080000000007
:10002000000000000000000000000000E9020008DD
:10003000E902000800000000E9020008E9020008E7
:10004000E9020008E9020008E9020008E9020008E4
:10005000E9020008E9020008E9020008E9020008D4
:10006000E9020008E9020008E9020008E9020008C4
:10007000E9020008E9020008E9020008E9020008B4
:10008000E9020008E9020008E9020008E9020008A4
:10009000E9020008E9020008E9020008E902000894
:1000A000E9020008E9020008E9020008E902000884
:1000B000E9020008E9020008E9020008E902000874
:1000C000E9020008E9020008E9020008E902000864
:1000D000E9020008E9020008E9020008E902000854
:1000E000E9020008E902000800000000E902000837
:1000F000E9020008E9020008E9020008E902000834
:10010000E9020008E9020008E9020008E902000823
:10011000E9020008E9020008E9020008E902000813
:10012000E9020008E9020008E9020008E902000803
:1001300010B5054C237833B9044B13B10448AFF321
:1001400000800123237010BD00000020000000008B
:100150004805000808B5034B1BB103490348AFF33A
:10016000008008BD000000000400002048050008D1
:1001700080B582B000AF0223BB800123BB713B1D61
:100180001946144800F014F90223BB800423BB7104
:100190000123FB713B1D19460F4800F009F94FF48C
:1001A0000053BB800123BB713B1D1946094800F079
:1001B000FFF84FF40053BB800423BB710123FB7194
:1001C0003B1D1946044800F0F3F800BF0837BD4650
:1001D00080BD00BF00080140000C014080B400AFAA
:1001E000074B9B69064A43F004039361044B9B69E8
:1001F000034A43F00803936100BFBD4680BC7047CB
:100200000010024080B485B000AF78600023FB602E
:100210000BE00023BB6002E0BB680133BB60BB683E
:10022000FE2BF9D9FB680133FB60FA687B689A42C0
:10023000EFD300BF1437BD4680BC704780B500AF18
:10024000FFF7CCFFFFF794FF0221114800F02FF9D0
:100250000346002B0BD102210E4800F03FF900BFEE
:1002600002210B4800F023F90346002BF8D04FF48D
:100270000051074800F01BF90346012B04D14FF44D
:100280000051044800F02AF90120FFF7BBFFDBE72B
:1002900000080140000C01400D488546AFF3008086
:1002A0000C480D490D4A002302E0D458C4500433D1
:1002B000C4188C42F9D30A4A0A4C002301E01360A7
:1002C0000432A242FBD300F01BF9FFF7B7FFFEE7B1
:1002D0000028002000000020000000206805000821
:1002E000000000201C000020FEE780B483B000AFB7
:1002F0000346FB80FB88802B42D0802B11DC082B2F
:1003000036D0082B06DC022B2ED0042B2ED0012B4E
:1003100028D047E0202B2FD0402B2FD0102B29D0D6
:1003200040E0B3F5006F33D0B3F5006F09DCB3F5EF
:10033000007F29D0B3F5806F28D0B3F5807F21D01E
:1003400030E0B3F5005F27D0B3F5005F03DCB3F511
:10035000805F1FD026E0B3F5804F1FD0B3F5004F6C
:100360001ED01FE000231EE004231CE008231AE037
:100370000C2318E0102316E0142314E0182312E0D5
:100380001C2310E000230EE004230CE008230AE005
:100390000C2308E0102306E0142304E0182302E0F5
:1003A0001C2300E0002318460C37BD4680BC704774
:1003B00090B585B000AF786039600023BB60002342
:1003C000FB733B681B88FF2B01D87B6801E07B68CF
:1003D0000433BB603B681B881846FFF786FF034663
:1003E0001A460F239340DA43BB681B681A40BB6868
:1003F0001A603B689B78072B0BD03B689B78062BD9
:1004000007D03B689B78052B03D03B689B78042B77
:100410000ED13B689B78043B9B005AB23B68DB786B
:100420005BB213435BB2DBB203F00F03FB732CE050
:100430003B689B78002B03D03B689B78012B07D14E
:100440003B689B789B00DBB203F00F03FB731CE05F
:100450003B689B78082B02D10423FB7315E008232B
:10046000FB733B689B78022B07D17B68DB683A689B
:1004700012881A437B68DA6007E07B68DB683A68B9
:100480001288D2431A407B68DA60FC7B3B681B8889
:100490001846FFF72AFF034604FA03F2BB681B68FD
:1004A0001A43BB681A6000BF1437BD4690BD80B4C4
:1004B00085B000AF78600B467B807B689A687B884C
:1004C0001340002B02D00123FB7301E00023FB73D8
:1004D000FB7B18461437BD4680BC704780B483B0A0
:1004E00000AF78600B467B807B68DA687B885A4077
:1004F0007B68DA6000BF0C37BD4680BC70470000E7
:1005000070B500250C4E0D4CA41BA410A54209D1BA
:1005100000F01AF800250A4E0A4CA41BA410A542AC
:1005200005D170BD56F8253098470135EEE756F8ED
:10053000253098470135F2E760050008600500089E
:100540006005000864050008F8B500BFF8BC08BCE9
:100550009E467047F8B500BFF8BC08BC9E46704781
:040560005501000839
:040564003101000859
:040000050800029954
:00000001FF
